:020000040000FA
:0400000010EF02F00B
:060008005A82C2ED04F073
:100018005A80D8CF3BF0E8CF3CF0E0CF3DF0E1CFBD
:100028003EF0E2CF3FF0D9CF40F0DACF41F0F6CF43
:1000380042F0F7CF43F0F8CF44F0F5CF45F09EAA51
:1000480028EF00F02AEF00F0A6EF01F0ABA22FEFA7
:1000580000F031EF00F034EF00F0AB980000AB880F
:1000680023EC04F00D0EAE18D8B43DEF00F03FEFCE
:1000780000F048EF00F00A0EAE18D8A446EF00F0E2
:1000880048EF00F054EF00F0460E336EC7EC04F072
:10009800396E39C034F0356ABAEC03F005EC04F077
:1000A8004C0E4618D8A45BEF00F05DEF00F08FEF20
:1000B80000F0520E4718D8A464EF00F066EF00F085
:1000C8008FEF00F04E0E4818D8A46DEF00F06FEFD8
:1000D80000F08FEF00F0460E316E40EC04F0030E96
:1000E80031183210D8A47BEF00F07DEF00F08FEFCD
:1000F80000F0000E1A6E010E196E05EC04F0460EA3
:10010800336E030E346E3450D8A4060E356EBAEC36
:1001180003F0F8EF01F04C0E4618D8A496EF00F063
:1001280098EF00F0CAEF00F0520E4718D8A49FEFDE
:1001380000F0A1EF00F0CAEF00F0460E4818D8A46E
:10014800A8EF00F0AAEF00F0CAEF00F0460E316EFB
:1001580040EC04F0030E31183210D8A4B6EF00F0CA
:10016800B8EF00F0CAEF00F0000E1A6E020E196E1A
:1001780005EC04F0460E336E030E346E3450D8A4EA
:10018800060E356EBAEC03F0F8EF01F04C0E461887
:10019800D8A4D1EF00F0D3EF00F005EF01F04C0E3A
:1001A8004718D8A4DAEF00F0DCEF00F005EF01F013
:1001B8004E0E4818D8A4E3EF00F0E5EF00F005EF85
:1001C80001F0460E316E40EC04F0030E3118321087
:1001D800D8A4F1EF00F0F3EF00F005EF01F0000E06
:1001E8001A6E030E196E05EC04F0460E336E030EFC
:1001F800346E3450D8A4060E356EBAEC03F0F8EF1E
:1002080001F04C0E4618D8A40CEF01F00EEF01F0E7
:1002180040EF01F04C0E4718D8A415EF01F017EF86
:1002280001F040EF01F0460E4818D8A41EEF01F087
:1002380020EF01F040EF01F0460E316E40EC04F083
:10024800030E31183210D8A42CEF01F02EEF01F074
:1002580040EF01F0000E1A6E040E196E05EC04F062
:10026800460E336E030E346E3450D8A4060E356E27
:10027800BAEC03F0F8EF01F0420E4618D8A447EFA5
:1002880001F049EF01F072EF01F04E0E4718D8A4C3
:1002980050EF01F052EF01F072EF01F0460E316EAF
:1002A80040EC04F0020E31183210D8A45EEF01F0D1
:1002B80060EF01F072EF01F0000E1A6E050E196E74
:1002C80005EC04F0460E336E030E346E3450D8A499
:1002D800060E356EBAEC03F0F8EF01F0420E461840
:1002E800D8A479EF01F07BEF01F0A4EF01F0460EFE
:1002F8004718D8A482EF01F084EF01F0A4EF01F0D1
:10030800460E316E40EC04F0020E31183210D8A4BB
:1003180090EF01F092EF01F0A4EF01F0000E1A6ED9
:10032800060E196E05EC04F0460E336E030E346E9D
:100338003450D8A4060E356EBAEC03F0F8EF01F08D
:10034800F8EF01F09EA2ABEF01F0ADEF01F0F8EF8E
:1003580001F09E92010E1524396E000E16203A6E99
:10036800070E3914156E166A15501610D8A4BFEF6B
:1003780001F0C1EF01F0F8EF01F0172806E11828A5
:10038800D8A4C9EF01F0CBEF01F0DEEF01F089AAA4
:10039800D0EF01F0D4EF01F0396A392AD5EF01F036
:1003A800396A393A394689503918DF0B3918896E54
:1003B800F8EF01F017041810D8A4E5EF01F0E7EF03
:1003C80001F0A4EF01F089AEECEF01F0F0EF01F0DD
:1003D800396A392AF1EF01F0396A393239328950EC
:1003E80039187F0B3918896E45C0F5FF44C0F8FFEE
:1003F80043C0F7FF42C0F6FF41C0DAFF40C0D9FF53
:100408003FC0E2FF3EC0E1FF3DC0E0FF3CC0E8FF67
:0C0418003BC0D8FF5A90100068EF04F0C1
:05060000000D0A0000DE
:10060600AFEC04F044EF03F0C9EC04F044EF03F060
:10061600000E846F010E836F75EC04F044EF03F057
:10062600000E846F020E836F82EC04F044EF03F039
:10063600000E846F030E836FA5EC04F044EF03F005
:10064600000E816F040E806F71EC03F0000E000146
:10065600816F040E806FC5EC04F044EF03F0000ECA
:10066600816F050E806F71EC03F0898C44EF03F007
:10067600000E816F060E806F71EC03F0899C44EFCB
:1006860003F019C085F01AC086F000018651000AF1
:10069600D8B450EF03F044EF03F08551000AD8B404
:1006A60007EF03F0010AD8B40BEF03F0030AD8B43E
:1006B60013EF03F0010AD8B41BEF03F0070AD8B40E
:1006C60023EF03F0010AD8B432EF03F0030AD8B4DB
:1006D6003BEF03F044EF03F010EF02F0000180B1AE
:1006E60077EF03F07BEF03F0826B822B7DEF03F055
:1006F6000001826B824789508219FD0B8219896E2F
:1007060080B388EF03F08CEF03F0826B822B8EEFC1
:1007160003F00001826B8247824789508219FB0BE6
:100726008219896E80B59AEF03F09EEF03F0826B13
:10073600822BA0EF03F00001826B8247824782473B
:1007460089508219F70B8219896E80B7ADEF03F0D5
:10075600B1EF03F0826B822BB3EF03F00001826BE3
:10076600823B89508219EF0B8219896E120033C0C1
:1007760038F03450366E3550376E344A352A36C026
:10078600F6FF37C0F7FFF86A382A3804D96EDA6AF6
:10079600050EF76403D00800F55005D0F6CFE1FF4B
:1007A600F7CFE2FFE750DF6EDF50D8A4DDEF03F0AE
:1007B600DFEF03F0BCEF03F01200000E356E000E03
:1007C600346EF3EF03F032503424336E33C0F6FF49
:1007D600060EF76E0800F5509AEC04F0344A352AF6
:1007E60032503424336E33C0F6FF060EF76E08001F
:1007F600F5500009D8A402EF04F004EF04F0E6EF88
:1008060003F01200000E326E000E316E31501D0FD5
:10081600D96EDA6ADF6A314A322A32BE1CEF04F038
:10082600325009E10A0E315CD8A01CEF04F01EEF2D
:1008360004F009EF04F0000E1C6E000E1B6E120091
:10084600AECF36F00D0E3618D8A42CEF04F02EEFEE
:1008560004F034EF04F0010E326EE0EC03F03FEFEB
:1008660004F01B501D0FD96EDA6A36C0DFFF1B4A33
:100876001C2A36509AEC04F0120031C033F045EFD2
:1008860004F0312A3150D96EDA6ADF50D8A44EEF1F
:1008960004F050EF04F044EF04F03350315C316E55
:1008A600326A31BE32061200948C948EAC98B89699
:1008B600AC84190EAF6EAB8E9E989E8AAC8AAB88BE
:1008C6009D989F989D8A9F9A120000EE01F0300E27
:1008D600EE6AE806FDE15A905A92000EF86E0001A3
:1008E60003EF03F083C080F084C081F071EC03F065
:1008F600898E899A000E186E010E176E1200000E70
:10090600186E000E176E83C080F084C081F071EC03
:1009160003F0899E1200D08EF28EF28C0F0EC16EFD
:10092600896A929A929C929EF288F2921200316E95
:10093600ACA2A0EF04F0A2EF04F09BEF04F031C0EC
:10094600ADFF120017681868898A83C080F084C0DA
:1009560081F071EC03F01200BEEC04F0B8EC04F088
:100966008EEC04F057EC04F012009E929F929D824A
:10097600CA68CB681200D38CD38AD39812000600BB
:0E0986005A921100899A12001D0E12001200E2
:020000040020DA
:08000000FFFFFFFFFFFFFFFF00
:020000040030CA
:0E000000FF881F00FF8381FF0FC00FE00F403D
:00000001FF
