:020000040000FA
:04000000BCEF01F060
:060008005782C6ED04F072
:100018005780D8CF36F0E8CF37F0E0CF38F0E1CFCF
:1000280039F0E2CF3AF0D9CF3BF0DACF3CF0F6CF57
:100038003DF0F7CF3EF0F8CF3FF0F5CF40F09EAA65
:1000480028EF00F02AEF00F0A4EF01F0ABA22FEFA9
:1000580000F031EF00F034EF00F0AB980000AB880F
:1000680029EC04F00D0EAE18D8B43DEF00F03FEFC8
:1000780000F048EF00F00A0EAE18D8A446EF00F0E2
:1000880048EF00F054EF00F0410E2F6EC9EC04F079
:10009800356E35C030F0316AC0EC03F00BEC04F07B
:1000A8004C0E4118D8A45BEF00F05DEF00F08FEF25
:1000B80000F0520E4218D8A464EF00F066EF00F08A
:1000C8008FEF00F04E0E4318D8A46DEF00F06FEFDD
:1000D80000F08FEF00F0410E2D6E46EC04F0030E99
:1000E8002D182E10D8A47BEF00F07DEF00F08FEFD5
:1000F80000F0000E166E010E156E0BEC04F0410EAA
:100108002F6E030E306E3050D8A4060E316EC0EC40
:1001180003F0A4EF01F04C0E4118D8A496EF00F0BC
:1001280098EF00F0CAEF00F0520E4218D8A49FEFE3
:1001380000F0A1EF00F0CAEF00F0460E4318D8A473
:10014800A8EF00F0AAEF00F0CAEF00F0410E2D6E04
:1001580046EC04F0030E2D182E10D8A4B6EF00F0CC
:10016800B8EF00F0CAEF00F0000E166E020E156E22
:100178000BEC04F0410E2F6E030E306E3050D8A4F5
:10018800060E316EC0EC03F0A4EF01F04C0E4118DE
:10019800D8A4D1EF00F0D3EF00F005EF01F04C0E3A
:1001A8004218D8A4DAEF00F0DCEF00F005EF01F018
:1001B8004E0E4318D8A4E3EF00F0E5EF00F005EF8A
:1001C80001F0410E2D6E46EC04F0030E2D182E1092
:1001D800D8A4F1EF00F0F3EF00F005EF01F0000E06
:1001E800166E030E156E0BEC04F0410E2F6E030E07
:1001F800306E3050D8A4060E316EC0EC03F0A4EF78
:1002080001F04C0E4118D8A40CEF01F00EEF01F0EC
:1002180040EF01F04C0E4218D8A415EF01F017EF8B
:1002280001F040EF01F0460E4318D8A41EEF01F08C
:1002380020EF01F040EF01F0410E2D6E46EC04F086
:10024800030E2D182E10D8A42CEF01F02EEF01F07C
:1002580040EF01F0000E166E040E156E0BEC04F064
:10026800410E2F6E030E306E3050D8A4060E316E3C
:10027800C0EC03F0A4EF01F0420E4118D8A447EFF8
:1002880001F049EF01F072EF01F04E0E4218D8A4C8
:1002980050EF01F052EF01F072EF01F0410E2D6EB8
:1002A80046EC04F0020E2D182E10D8A45EEF01F0D3
:1002B80060EF01F072EF01F0000E166E050E156E7C
:1002C8000BEC04F0410E2F6E030E306E3050D8A4A4
:1002D800060E316EC0EC03F0A4EF01F0420E411897
:1002E800D8A479EF01F07BEF01F0A4EF01F0460EFE
:1002F8004218D8A482EF01F084EF01F0A4EF01F0D6
:10030800410E2D6E46EC04F0020E2D182E10D8A4C6
:1003180090EF01F092EF01F0A4EF01F0000E166EDD
:10032800060E156E0BEC04F0410E2F6E030E306EA8
:100338003050D8A4060E316EC0EC03F0A4EF01F0E3
:1003480040C0F5FF3FC0F8FF3EC0F7FF3DC0F6FFD5
:100358003CC0DAFF3BC0D9FF3AC0E2FF39C0E1FF39
:1003680038C0E0FF37C0E8FF36C0D8FF579010000C
:040378006EEF04F030
:05060000000D0A0000DE
:100606000F0EC16E896A92929294929692988992EE
:10061600899489968998F28EF28CF288F292A9ECE6
:1006260004F04AEF03F0A2EC04F04AEF03F0000EE8
:10063600826F010E816F86EC04F04AEF03F0000E24
:10064600826F020E816F8DEC04F04AEF03F0000E0C
:10065600826F030E816F94EC04F04AEF03F0000EF4
:10066600826F040E816F9BEC04F04AEF03F0000EDC
:10067600826F050E816FB0EC04F04AEF03F0000EB6
:10068600826F060E816FB7EC04F04AEF03F015C0D7
:1006960083F016C084F000018451000AD8B456EFE6
:1006A60003F04AEF03F08351000AD8B416EF03F0C3
:1006B600010AD8B41AEF03F0030AD8B422EF03F004
:1006C600010AD8B42AEF03F0070AD8B432EF03F0D0
:1006D600010AD8B43AEF03F0030AD8B442EF03F0A4
:1006E6004AEF03F0BCEF01F055B07CEF03F081EF69
:1006F60003F00001806B802B83EF03F00001806B19
:10070600804789508019FD0B8019896E55B28EEF8E
:1007160003F092EF03F0806B802B94EF03F000015F
:10072600806B8047804789508019FB0B8019896E42
:1007360055B4A0EF03F0A4EF03F0806B802BA6EF77
:1007460003F00001806B80478047804789508019FD
:10075600F70B8019896E55B6B3EF03F0B7EF03F0C8
:10076600806B802BB9EF03F00001806B803B8950D2
:100776008019EF0B8019896E12002FC034F03050AB
:10078600326E3150336E304A312A32C0F6FF33C0F2
:10079600F7FFF86A342A3404D96EDA6A050EF7646C
:1007A60003D00800F55005D0F6CFE1FFF7CFE2FF02
:1007B600E750DF6EDF50D8A4E3EF03F0E5EF03F078
:1007C600C2EF03F01200000E316E000E306EF9EF2C
:1007D60003F02E5030242F6E2FC0F6FF060EF76E54
:1007E6000800F5507BEC04F0304A312A2E503024B4
:1007F6002F6E2FC0F6FF060EF76E0800F5500009A3
:10080600D8A408EF04F00AEF04F0ECEF03F01200AE
:10081600000E2E6E000E2D6E2D50190FD96EDA6A4F
:10082600DF6A2D4A2E2A2EBE22EF04F02E5009E151
:100836000A0E2D5CD8A022EF04F024EF04F00FEF8F
:1008460004F0000E186E000E176E1200AECF32F0D6
:100856000D0E3218D8A432EF04F034EF04F03AEF5C
:1008660004F0010E2E6EE6EC03F045EF04F017508F
:10087600190FD96EDA6A32C0DFFF174A182A3250CA
:100886007BEC04F012002DC02FF04BEF04F02D2A64
:100896002D50D96EDA6ADF50D8A454EF04F056EF23
:1008A60004F04AEF04F02F502D5C2D6E2E6A2DBEFB
:1008B6002E061200948C948EAC98B896AC84190EC1
:1008C600AF6EAB8E9E989E8AAC8AAB889D989F9899
:1008D6009D8A9F9A120000EE01F02C0EEE6AE80641
:1008E600FDE157905792000EF86E000103EF03F0FA
:1008F6002D6EACA281EF04F083EF04F07CEF04F0E0
:100906002DC0ADFF120081C055F082C056F077ECC5
:1009160003F0120081C055F082C056F077EC03F068
:10092600120081C055F082C056F077EC03F0120039
:1009360081C055F082C056F077EC03F01200000E2D
:10094600566E000E556E77EC03F01200BEEC04F006
:10095600C2EC04F05DEC04F0120081C055F082C0D8
:1009660056F077EC03F0120081C055F082C056F0C5
:1009760077EC03F01200D38CD38AD3981200D08E72
:10098600F28EF28C1200060057921100190E120018
:020000040020DA
:08000000FFFFFFFFFFFFFFFF00
:020000040030CA
:0E000000FF881F00FF8381FF0FC00FE00F403D
:00000001FF
