:020000040000FA
:04000000CCEF01F050
:060008005A82ADED04F088
:100018005A80D8CF3BF0E8CF3CF0E0CF3DF0E1CFBD
:100028003EF0E2CF3FF0D9CF40F0DACF41F0F6CF43
:1000380042F0F7CF43F0F8CF44F0F5CF45F09EAA51
:1000480028EF00F02AEF00F062EF01F0ABA22FEFEB
:1000580000F031EF00F034EF00F0AB980000AB880F
:1000680010EC04F00D0EAE18D8B43DEF00F03FEFE1
:1000780000F048EF00F00A0EAE18D8A446EF00F0E2
:1000880048EF00F054EF00F0460E336EB0EC04F089
:10009800396E39C034F0356AA7EC03F0F2EC03F09E
:1000A8004C0E4618D8A45BEF00F05DEF00F08FEF20
:1000B80000F0520E4718D8A464EF00F066EF00F085
:1000C8008FEF00F04E0E4818D8A46DEF00F06FEFD8
:1000D80000F08FEF00F0460E316E2DEC04F0030EA9
:1000E80031183210D8A47BEF00F07DEF00F08FEFCD
:1000F80000F0000E1A6E010E196EF2EC03F0460EB7
:10010800336E030E346E3450D8A4060E356EA7EC49
:1001180003F0B4EF01F04C0E4618D8A496EF00F0A7
:1001280098EF00F0C1EF00F0460E4718D8A49FEFF3
:1001380000F0A1EF00F0C1EF00F0460E316E2DEC9B
:1001480004F0020E31183210D8A4ADEF00F0AFEF72
:1001580000F0C1EF00F0000E1A6E020E196EF2ECFC
:1001680003F0460E336E030E346E3450D8A4060ED8
:10017800356EA7EC03F0B4EF01F04C0E4618D8A486
:10018800C8EF00F0CAEF00F0FCEF00F04C0E471883
:10019800D8A4D1EF00F0D3EF00F0FCEF00F04E0E42
:1001A8004818D8A4DAEF00F0DCEF00F0FCEF00F01C
:1001B800460E316E2DEC04F0030E31183210D8A41F
:1001C800E8EF00F0EAEF00F0FCEF00F0000E1A6E26
:1001D800030E196EF2EC03F0460E336E030E346E06
:1001E8003450D8A4060E356EA7EC03F0B4EF01F036
:1001F800420E4618D8A403EF01F005EF01F02EEFE8
:1002080001F04E0E4718D8A40CEF01F00EEF01F0E4
:100218002EEF01F0460E316E2DEC04F0020E31186F
:100228003210D8A41AEF01F01CEF01F02EEF01F004
:10023800000E1A6E040E196EF2EC03F0460E336EC1
:10024800030E346E3450D8A4060E356EA7EC03F0B6
:10025800B4EF01F0420E4618D8A435EF01F037EF9D
:1002680001F060EF01F0460E4718D8A43EEF01F008
:1002780040EF01F060EF01F0460E316E2DEC04F016
:10028800020E31183210D8A44CEF01F04EEF01F0F5
:1002980060EF01F0000E1A6E050E196EF2EC03F015
:1002A800460E336E030E346E3450D8A4060E356EE7
:1002B800A7EC03F0B4EF01F0B4EF01F09EA267EFF2
:1002C80001F069EF01F0B4EF01F09E92010E1524E0
:1002D800396E000E16203A6E070E3914156E166A1E
:1002E80015501610D8A47BEF01F07DEF01F0B4EFA4
:1002F80001F0172806E11828D8A485EF01F087EF48
:1003080001F09AEF01F089AA8CEF01F090EF01F06B
:10031800396A392A91EF01F0396A393A39468950F0
:100328003918DF0B3918896EB4EF01F0170418106B
:10033800D8A4A1EF01F0A3EF01F060EF01F089AEBE
:10034800A8EF01F0ACEF01F0396A392AADEF01F0FE
:10035800396A39323932895039187F0B3918896E20
:1003680045C0F5FF44C0F8FF43C0F7FF42C0F6FFA1
:1003780041C0DAFF40C0D9FF3FC0E2FF3EC0E1FF05
:100388003DC0E0FF3CC0E8FF3BC0D8FF5A901000DA
:0403980055EF04F029
:05060000000D0A0000DE
:100606009AEC04F035EF03F0B2EC04F035EF03F0AA
:10061600000E846F010E836F7BEC04F035EF03F060
:10062600000E846F020E836F62EC04F035EF03F068
:10063600000E846F030E836F91EC04F035EF03F028
:10064600000E816F040E806F5EEC03F0898C35EF2F
:1006560003F0000E816F050E806F5EEC03F0899C3F
:1006660035EF03F019C085F01AC086F000018651F7
:10067600000AD8B441EF03F035EF03F08551000AC4
:10068600D8B407EF03F0010AD8B40BEF03F0030A5E
:10069600D8B413EF03F0010AD8B41BEF03F0070A2E
:1006A600D8B423EF03F0010AD8B42CEF03F035EFEA
:1006B60003F0CCEF01F0000180B164EF03F068EFC6
:1006C60003F0826B822B6AEF03F00001826B824794
:1006D60089508219FD0B8219896E80B375EF03F07C
:1006E60079EF03F0826B822B7BEF03F00001826BC4
:1006F6008247824789508219FB0B8219896E80B521
:1007060087EF03F08BEF03F0826B822B8DEF03F004
:100716000001826B82478247824789508219F70B14
:100726008219896E80B79AEF03F09EEF03F0826B11
:10073600822BA0EF03F00001826B823B8950821965
:10074600EF0B8219896E120033C038F03450366EC2
:100756003550376E344A352A36C0F6FF37C0F7FFB4
:10076600F86A382A3804D96EDA6A050EF76403D0B7
:100776000800F55005D0F6CFE1FFF7CFE2FFE750CE
:10078600DF6EDF50D8A4CAEF03F0CCEF03F0A9EF79
:1007960003F01200000E356E000E346EE0EF03F02B
:1007A60032503424336E33C0F6FF060EF76E08005F
:1007B600F55086EC04F0344A352A32503424336E30
:1007C60033C0F6FF060EF76E0800F5500009D8A4F0
:1007D600EFEF03F0F1EF03F0D3EF03F01200000E9A
:1007E600326E000E316E31501D0FD96EDA6ADF6A35
:1007F600314A322A32BE09EF04F0325009E10A0EBC
:10080600315CD8A009EF04F00BEF04F0F6EF03F02B
:10081600000E1C6E000E1B6E1200AECF36F00D0ED3
:100826003618D8A419EF04F01BEF04F021EF04F0FA
:10083600010E326ECDEC03F02CEF04F01B501D0FB1
:10084600D96EDA6A36C0DFFF1B4A1C2A365086ECA0
:1008560004F0120031C033F032EF04F0312A315087
:10086600D96EDA6ADF50D8A43BEF04F03DEF04F00E
:1008760031EF04F03350315C316E326A31BE3206EC
:100886001200948C948EAC98B896AC84190EAF6E08
:10089600AB8E9E989E8AAC8AAB889D989F989D8ABF
:1008A6009F9A120000EE01F0300EEE6AE806FDE1B6
:1008B6005A905A92000EF86E000103EF03F0000EF4
:1008C600186E000E176E83C080F084C081F05EEC57
:1008D60003F0899A899E1200D08EF28EF28C0F0E4A
:1008E600C16E896A929A929C929EF288F292120046
:1008F60083C080F084C081F05EEC03F0000E186EB9
:10090600010E176E1200316EACA28CEF04F08EEF62
:1009160004F087EF04F031C0ADFF120017681868C5
:1009260083C080F084C081F05EEC03F01200A9EC75
:1009360004F0A3EC04F06FEC04F044EC04F01200B5
:100946009E929F929D82CA68CB681200D38CD38AEE
:10095600D398120006005A9211001D0E12001200C2
:020000040020DA
:08000000FFFFFFFFFFFFFFFF00
:020000040030CA
:0E000000FF881F00FF8381FF0FC00FE00F403D
:00000001FF
